{
  "contractName": "VoteFactory",
  "abi": [
    {
      "inputs": [
        {
          "internalType": "uint256",
          "name": "",
          "type": "uint256"
        }
      ],
      "name": "prpposals",
      "outputs": [
        {
          "internalType": "address",
          "name": "owner",
          "type": "address"
        },
        {
          "internalType": "bytes",
          "name": "metadata",
          "type": "bytes"
        },
        {
          "internalType": "bool",
          "name": "isActive",
          "type": "bool"
        },
        {
          "internalType": "enum VoteFactory.WhoCanVote",
          "name": "whoCanVote",
          "type": "uint8"
        },
        {
          "internalType": "enum VoteFactory.TimelineType",
          "name": "timelineType",
          "type": "uint8"
        }
      ],
      "stateMutability": "view",
      "type": "function"
    },
    {
      "inputs": [
        {
          "internalType": "bytes",
          "name": "_metadata",
          "type": "bytes"
        },
        {
          "internalType": "uint8",
          "name": "_whoCanVote",
          "type": "uint8"
        },
        {
          "internalType": "bool",
          "name": "_isTimeLineBlockHight",
          "type": "bool"
        },
        {
          "components": [
            {
              "internalType": "bytes",
              "name": "data",
              "type": "bytes"
            },
            {
              "internalType": "uint256",
              "name": "voteCount",
              "type": "uint256"
            }
          ],
          "internalType": "struct VoteFactory.VotingOption[]",
          "name": "_options",
          "type": "tuple[]"
        }
      ],
      "name": "createProposal",
      "outputs": [
        {
          "internalType": "uint256",
          "name": "",
          "type": "uint256"
        }
      ],
      "stateMutability": "pure",
      "type": "function"
    }
  ],
  "bytecode": "0x608060405234801561001057600080fd5b5061089d806100206000396000f3fe608060405234801561001057600080fd5b50600436106100365760003560e01c8063386e85e81461003b578063ad257ddb1461006f575b600080fd5b6100556004803603810190610050919061020c565b61009f565b6040516100669594939291906103ed565b60405180910390f35b6100896004803603810190610084919061073d565b6101b4565b60405161009691906107eb565b60405180910390f35b600081815481106100af57600080fd5b90600052602060002090600402016000915090508060000160009054906101000a900473ffffffffffffffffffffffffffffffffffffffff16908060010180546100f890610835565b80601f016020809104026020016040519081016040528092919081815260200182805461012490610835565b80156101715780601f1061014657610100808354040283529160200191610171565b820191906000526020600020905b81548152906001019060200180831161015457829003601f168201915b5050505050908060020160009054906101000a900460ff16908060020160019054906101000a900460ff16908060020160029054906101000a900460ff16905085565b600081519050949350505050565b6000604051905090565b600080fd5b600080fd5b6000819050919050565b6101e9816101d6565b81146101f457600080fd5b50565b600081359050610206816101e0565b92915050565b600060208284031215610222576102216101cc565b5b6000610230848285016101f7565b91505092915050565b600073ffffffffffffffffffffffffffffffffffffffff82169050919050565b600061026482610239565b9050919050565b61027481610259565b82525050565b600081519050919050565b600082825260208201905092915050565b60005b838110156102b4578082015181840152602081019050610299565b838111156102c3576000848401525b50505050565b6000601f19601f8301169050919050565b60006102e58261027a565b6102ef8185610285565b93506102ff818560208601610296565b610308816102c9565b840191505092915050565b60008115159050919050565b61032881610313565b82525050565b7f4e487b7100000000000000000000000000000000000000000000000000000000600052602160045260246000fd5b6003811061036e5761036d61032e565b5b50565b600081905061037f8261035d565b919050565b600061038f82610371565b9050919050565b61039f81610384565b82525050565b600281106103b6576103b561032e565b5b50565b60008190506103c7826103a5565b919050565b60006103d7826103b9565b9050919050565b6103e7816103cc565b82525050565b600060a082019050610402600083018861026b565b818103602083015261041481876102da565b9050610423604083018661031f565b6104306060830185610396565b61043d60808301846103de565b9695505050505050565b600080fd5b600080fd5b7f4e487b7100000000000000000000000000000000000000000000000000000000600052604160045260246000fd5b610489826102c9565b810181811067ffffffffffffffff821117156104a8576104a7610451565b5b80604052505050565b60006104bb6101c2565b90506104c78282610480565b919050565b600067ffffffffffffffff8211156104e7576104e6610451565b5b6104f0826102c9565b9050602081019050919050565b82818337600083830152505050565b600061051f61051a846104cc565b6104b1565b90508281526020810184848401111561053b5761053a61044c565b5b6105468482856104fd565b509392505050565b600082601f83011261056357610562610447565b5b813561057384826020860161050c565b91505092915050565b600060ff82169050919050565b6105928161057c565b811461059d57600080fd5b50565b6000813590506105af81610589565b92915050565b6105be81610313565b81146105c957600080fd5b50565b6000813590506105db816105b5565b92915050565b600067ffffffffffffffff8211156105fc576105fb610451565b5b602082029050602081019050919050565b600080fd5b600080fd5b600080fd5b60006040828403121561063257610631610612565b5b61063c60406104b1565b9050600082013567ffffffffffffffff81111561065c5761065b610617565b5b6106688482850161054e565b600083015250602061067c848285016101f7565b60208301525092915050565b600061069b610696846105e1565b6104b1565b905080838252602082019050602084028301858111156106be576106bd61060d565b5b835b8181101561070557803567ffffffffffffffff8111156106e3576106e2610447565b5b8086016106f0898261061c565b855260208501945050506020810190506106c0565b5050509392505050565b600082601f83011261072457610723610447565b5b8135610734848260208601610688565b91505092915050565b60008060008060808587031215610757576107566101cc565b5b600085013567ffffffffffffffff811115610775576107746101d1565b5b6107818782880161054e565b9450506020610792878288016105a0565b93505060406107a3878288016105cc565b925050606085013567ffffffffffffffff8111156107c4576107c36101d1565b5b6107d08782880161070f565b91505092959194509250565b6107e5816101d6565b82525050565b600060208201905061080060008301846107dc565b92915050565b7f4e487b7100000000000000000000000000000000000000000000000000000000600052602260045260246000fd5b6000600282049050600182168061084d57607f821691505b6020821081141561086157610860610806565b5b5091905056fea2646970667358221220063487de597691d6af088a5eaf0fc4958d5076faafd0601e6d51a05385cd597064736f6c634300080a0033",
  "immutableReferences": {},
  "source": "// SPDX-License-Identifier: MIT\npragma solidity ^0.8.10;\n\ncontract VoteFactory {\n    enum WhoCanVote {\n        Ether,\n        Erc20,\n        NFT\n    }\n\n    enum TimelineType {\n        NumberOfVotes,\n        BlockHight\n    }\n\n    struct VotingOption {\n        bytes data;\n        uint256 voteCount;\n    }\n\n    struct Proposal {\n        address owner;\n        bytes metadata;\n        bool isActive;\n        WhoCanVote whoCanVote;\n        TimelineType timelineType;\n        VotingOption[] votingOptions;\n    }\n\n    Proposal[] public prpposals;\n\n    function createProposal(\n        bytes memory _metadata,\n        uint8 _whoCanVote,\n        bool _isTimeLineBlockHight,\n        VotingOption[] memory _options\n    ) public pure returns (uint256) {\n        return _options.length;\n    }\n}\n",
  "sourcePath": "/home/ashish/projects/vote_factory/contracts/VoteFactory.sol",
  "compiler": {
    "name": "solc",
    "version": "0.8.10+commit.fc410830.Emscripten.clang"
  },
  "schemaVersion": "3.4.4",
  "updatedAt": "2022-01-24T16:24:58.875Z",
  "devdoc": {
    "kind": "dev",
    "methods": {},
    "version": 1
  },
  "userdoc": {
    "kind": "user",
    "methods": {},
    "version": 1
  }
}